{
  "_format": "hh-sol-artifact-1",
  "contractName": "WelliIDRegistry",
  "sourceName": "contracts/WellIDRegistration.sol",
  "abi": [
    {
      "inputs": [],
      "stateMutability": "nonpayable",
      "type": "constructor"
    },
    {
      "inputs": [
        {
          "internalType": "address",
          "name": "owner",
          "type": "address"
        }
      ],
      "name": "OwnableInvalidOwner",
      "type": "error"
    },
    {
      "inputs": [
        {
          "internalType": "address",
          "name": "account",
          "type": "address"
        }
      ],
      "name": "OwnableUnauthorizedAccount",
      "type": "error"
    },
    {
      "anonymous": false,
      "inputs": [
        {
          "indexed": true,
          "internalType": "bytes32",
          "name": "didHash",
          "type": "bytes32"
        },
        {
          "indexed": true,
          "internalType": "bytes32",
          "name": "vcHash",
          "type": "bytes32"
        },
        {
          "indexed": true,
          "internalType": "address",
          "name": "issuer",
          "type": "address"
        },
        {
          "indexed": false,
          "internalType": "uint256",
          "name": "timestamp",
          "type": "uint256"
        },
        {
          "indexed": false,
          "internalType": "uint256",
          "name": "index",
          "type": "uint256"
        }
      ],
      "name": "DIDRegistered",
      "type": "event"
    },
    {
      "anonymous": false,
      "inputs": [
        {
          "indexed": true,
          "internalType": "bytes32",
          "name": "didHash",
          "type": "bytes32"
        },
        {
          "indexed": true,
          "internalType": "address",
          "name": "revokedBy",
          "type": "address"
        },
        {
          "indexed": false,
          "internalType": "uint256",
          "name": "timestamp",
          "type": "uint256"
        },
        {
          "indexed": false,
          "internalType": "uint256",
          "name": "index",
          "type": "uint256"
        }
      ],
      "name": "DIDRevoked",
      "type": "event"
    },
    {
      "anonymous": false,
      "inputs": [
        {
          "indexed": true,
          "internalType": "address",
          "name": "previousOwner",
          "type": "address"
        },
        {
          "indexed": true,
          "internalType": "address",
          "name": "newOwner",
          "type": "address"
        }
      ],
      "name": "OwnershipTransferred",
      "type": "event"
    },
    {
      "anonymous": false,
      "inputs": [
        {
          "indexed": true,
          "internalType": "address",
          "name": "issuer",
          "type": "address"
        },
        {
          "indexed": false,
          "internalType": "string",
          "name": "metadata",
          "type": "string"
        }
      ],
      "name": "TrustedIssuerAdded",
      "type": "event"
    },
    {
      "anonymous": false,
      "inputs": [
        {
          "indexed": true,
          "internalType": "address",
          "name": "issuer",
          "type": "address"
        }
      ],
      "name": "TrustedIssuerRemoved",
      "type": "event"
    },
    {
      "inputs": [
        {
          "internalType": "address",
          "name": "issuer",
          "type": "address"
        },
        {
          "internalType": "string",
          "name": "metadata",
          "type": "string"
        }
      ],
      "name": "addTrustedIssuer",
      "outputs": [],
      "stateMutability": "nonpayable",
      "type": "function"
    },
    {
      "inputs": [
        {
          "internalType": "address",
          "name": "addr",
          "type": "address"
        }
      ],
      "name": "checkTrustedIssuer",
      "outputs": [
        {
          "internalType": "bool",
          "name": "",
          "type": "bool"
        }
      ],
      "stateMutability": "view",
      "type": "function"
    },
    {
      "inputs": [
        {
          "internalType": "bytes32",
          "name": "didHash",
          "type": "bytes32"
        },
        {
          "internalType": "uint256",
          "name": "index",
          "type": "uint256"
        }
      ],
      "name": "getHistoryEntry",
      "outputs": [
        {
          "internalType": "bytes32",
          "name": "vcHash",
          "type": "bytes32"
        },
        {
          "internalType": "address",
          "name": "issuer",
          "type": "address"
        },
        {
          "internalType": "uint256",
          "name": "timestamp",
          "type": "uint256"
        },
        {
          "internalType": "bool",
          "name": "revoked",
          "type": "bool"
        }
      ],
      "stateMutability": "view",
      "type": "function"
    },
    {
      "inputs": [
        {
          "internalType": "bytes32",
          "name": "didHash",
          "type": "bytes32"
        }
      ],
      "name": "getHistoryLength",
      "outputs": [
        {
          "internalType": "uint256",
          "name": "",
          "type": "uint256"
        }
      ],
      "stateMutability": "view",
      "type": "function"
    },
    {
      "inputs": [
        {
          "internalType": "bytes32",
          "name": "didHash",
          "type": "bytes32"
        }
      ],
      "name": "getLatestVCHash",
      "outputs": [
        {
          "internalType": "bytes32",
          "name": "vcHash",
          "type": "bytes32"
        },
        {
          "internalType": "address",
          "name": "issuer",
          "type": "address"
        },
        {
          "internalType": "uint256",
          "name": "timestamp",
          "type": "uint256"
        },
        {
          "internalType": "bool",
          "name": "revoked",
          "type": "bool"
        }
      ],
      "stateMutability": "view",
      "type": "function"
    },
    {
      "inputs": [
        {
          "internalType": "address",
          "name": "",
          "type": "address"
        }
      ],
      "name": "isTrustedIssuer",
      "outputs": [
        {
          "internalType": "bool",
          "name": "",
          "type": "bool"
        }
      ],
      "stateMutability": "view",
      "type": "function"
    },
    {
      "inputs": [
        {
          "internalType": "address",
          "name": "",
          "type": "address"
        }
      ],
      "name": "issuerMetadata",
      "outputs": [
        {
          "internalType": "string",
          "name": "",
          "type": "string"
        }
      ],
      "stateMutability": "view",
      "type": "function"
    },
    {
      "inputs": [],
      "name": "owner",
      "outputs": [
        {
          "internalType": "address",
          "name": "",
          "type": "address"
        }
      ],
      "stateMutability": "view",
      "type": "function"
    },
    {
      "inputs": [
        {
          "internalType": "bytes32",
          "name": "didHash",
          "type": "bytes32"
        },
        {
          "internalType": "bytes32",
          "name": "vcHash",
          "type": "bytes32"
        },
        {
          "internalType": "address",
          "name": "didOwner",
          "type": "address"
        }
      ],
      "name": "registerDID",
      "outputs": [],
      "stateMutability": "nonpayable",
      "type": "function"
    },
    {
      "inputs": [
        {
          "internalType": "address",
          "name": "issuer",
          "type": "address"
        }
      ],
      "name": "removeTrustedIssuer",
      "outputs": [],
      "stateMutability": "nonpayable",
      "type": "function"
    },
    {
      "inputs": [],
      "name": "renounceOwnership",
      "outputs": [],
      "stateMutability": "nonpayable",
      "type": "function"
    },
    {
      "inputs": [
        {
          "internalType": "bytes32",
          "name": "didHash",
          "type": "bytes32"
        }
      ],
      "name": "revokeLatest",
      "outputs": [],
      "stateMutability": "nonpayable",
      "type": "function"
    },
    {
      "inputs": [
        {
          "internalType": "address",
          "name": "newOwner",
          "type": "address"
        }
      ],
      "name": "transferOwnership",
      "outputs": [],
      "stateMutability": "nonpayable",
      "type": "function"
    }
  ],
  "bytecode": "0x608060405234801561001057600080fd5b5033600073ffffffffffffffffffffffffffffffffffffffff168173ffffffffffffffffffffffffffffffffffffffff16036100845760006040517f1e4fbdf700000000000000000000000000000000000000000000000000000000815260040161007b919061019e565b60405180910390fd5b6100938161009960201b60201c565b506101b9565b60008060009054906101000a900473ffffffffffffffffffffffffffffffffffffffff169050816000806101000a81548173ffffffffffffffffffffffffffffffffffffffff021916908373ffffffffffffffffffffffffffffffffffffffff1602179055508173ffffffffffffffffffffffffffffffffffffffff168173ffffffffffffffffffffffffffffffffffffffff167f8be0079c531659141344cd1fd0a4f28419497f9722a3daafe3b4186f6b6457e060405160405180910390a35050565b600073ffffffffffffffffffffffffffffffffffffffff82169050919050565b60006101888261015d565b9050919050565b6101988161017d565b82525050565b60006020820190506101b3600083018461018f565b92915050565b61205e806101c86000396000f3fe608060405234801561001057600080fd5b50600436106100cf5760003560e01c8063bec67c5d1161008c578063e9446a5e11610066578063e9446a5e146101ff578063ef2ed1a41461022f578063f2fde38b1461025f578063f968ae481461027b576100cf565b8063bec67c5d146101ab578063d023e500146101c7578063d8c90762146101e3576100cf565b806326542a47146100d45780634336cb7914610107578063715018a6146101375780638da5cb5b146101415780639465732f1461015f578063b93d28eb1461018f575b600080fd5b6100ee60048036038101906100e991906112d5565b6102ae565b6040516100fe949392919061138f565b60405180910390f35b610121600480360381019061011c91906113d4565b610396565b60405161012e9190611401565b60405180910390f35b61013f6103b6565b005b6101496103ca565b604051610156919061141c565b60405180910390f35b61017960048036038101906101749190611463565b6103f3565b6040516101869190611490565b60405180910390f35b6101a960048036038101906101a49190611463565b610449565b005b6101c560048036038101906101c091906113d4565b6105c6565b005b6101e160048036038101906101dc91906114ab565b61084d565b005b6101fd60048036038101906101f89190611563565b610c87565b005b61021960048036038101906102149190611463565b610e86565b6040516102269190611653565b60405180910390f35b61024960048036038101906102449190611463565b610f26565b6040516102569190611490565b60405180910390f35b61027960048036038101906102749190611463565b610f46565b005b610295600480360381019061029091906113d4565b610fcc565b6040516102a5949392919061138f565b60405180910390f35b6000806000806004600087815260200190815260200160002080549050851061030c576040517f08c379a0000000000000000000000000000000000000000000000000000000008152600401610303906116c1565b60405180910390fd5b6000600460008881526020019081526020016000208681548110610333576103326116e1565b5b9060005260206000209060050201905080600101548160020160009054906101000a900473ffffffffffffffffffffffffffffffffffffffff1682600301548360040160009054906101000a900460ff1694509450945094505092959194509250565b600060046000838152602001908152602001600020805490509050919050565b6103be6110af565b6103c86000611136565b565b60008060009054906101000a900473ffffffffffffffffffffffffffffffffffffffff16905090565b6000600160008373ffffffffffffffffffffffffffffffffffffffff1673ffffffffffffffffffffffffffffffffffffffff16815260200190815260200160002060009054906101000a900460ff169050919050565b6104516110af565b600160008273ffffffffffffffffffffffffffffffffffffffff1673ffffffffffffffffffffffffffffffffffffffff16815260200190815260200160002060009054906101000a900460ff166104dd576040517f08c379a00000000000000000000000000000000000000000000000000000000081526004016104d49061175c565b60405180910390fd5b6000600160008373ffffffffffffffffffffffffffffffffffffffff1673ffffffffffffffffffffffffffffffffffffffff16815260200190815260200160002060006101000a81548160ff021916908315150217905550600260008273ffffffffffffffffffffffffffffffffffffffff1673ffffffffffffffffffffffffffffffffffffffff16815260200190815260200160002060006105809190611202565b8073ffffffffffffffffffffffffffffffffffffffff167f2214ded40113cc3fb63fc206cafee88270b0a903dac7245d54efdde30ebb032160405160405180910390a250565b6000801b810361060b576040517f08c379a0000000000000000000000000000000000000000000000000000000008152600401610602906117c8565b60405180910390fd5b60006004600083815260200190815260200160002080549050905060008111610669576040517f08c379a000000000000000000000000000000000000000000000000000000000815260040161066090611834565b60405180910390fd5b60006003600084815260200190815260200160002054905060006004600085815260200190815260200160002082815481106106a8576106a76116e1565b5b906000526020600020906005020190508060020160009054906101000a900473ffffffffffffffffffffffffffffffffffffffff1673ffffffffffffffffffffffffffffffffffffffff163373ffffffffffffffffffffffffffffffffffffffff16148061074857506107196103ca565b73ffffffffffffffffffffffffffffffffffffffff163373ffffffffffffffffffffffffffffffffffffffff16145b610787576040517f08c379a000000000000000000000000000000000000000000000000000000000815260040161077e906118c6565b60405180910390fd5b8060040160009054906101000a900460ff16156107d9576040517f08c379a00000000000000000000000000000000000000000000000000000000081526004016107d090611932565b60405180910390fd5b60018160040160006101000a81548160ff0219169083151502179055503373ffffffffffffffffffffffffffffffffffffffff16847f0a6995b90f3c8b720b979a9c5500303b0ffeb45ad61ee1dcd0a243e28383e974428560405161083f929190611952565b60405180910390a350505050565b600160003373ffffffffffffffffffffffffffffffffffffffff1673ffffffffffffffffffffffffffffffffffffffff16815260200190815260200160002060009054906101000a900460ff166108d9576040517f08c379a00000000000000000000000000000000000000000000000000000000081526004016108d0906119ed565b60405180910390fd5b6000801b830361091e576040517f08c379a0000000000000000000000000000000000000000000000000000000008152600401610915906117c8565b60405180910390fd5b6000801b8203610963576040517f08c379a000000000000000000000000000000000000000000000000000000000815260040161095a90611a59565b60405180910390fd5b600073ffffffffffffffffffffffffffffffffffffffff168173ffffffffffffffffffffffffffffffffffffffff16036109d2576040517f08c379a00000000000000000000000000000000000000000000000000000000081526004016109c990611ac5565b60405180910390fd5b6000600460008581526020019081526020016000208054905090506000811115610a9357600060036000868152602001908152602001600020549050600460008681526020019081526020016000208181548110610a3357610a326116e1565b5b906000526020600020906005020160040160009054906101000a900460ff16610a91576040517f08c379a0000000000000000000000000000000000000000000000000000000008152600401610a8890611b57565b60405180910390fd5b505b60006040518060a001604052808473ffffffffffffffffffffffffffffffffffffffff1681526020018581526020013373ffffffffffffffffffffffffffffffffffffffff1681526020014281526020016000151581525090506004600086815260200190815260200160002081908060018154018082558091505060019003906000526020600020906005020160009091909190915060008201518160000160006101000a81548173ffffffffffffffffffffffffffffffffffffffff021916908373ffffffffffffffffffffffffffffffffffffffff1602179055506020820151816001015560408201518160020160006101000a81548173ffffffffffffffffffffffffffffffffffffffff021916908373ffffffffffffffffffffffffffffffffffffffff1602179055506060820151816003015560808201518160040160006101000a81548160ff0219169083151502179055505050600060016004600088815260200190815260200160002080549050610c139190611ba6565b90508060036000888152602001908152602001600020819055503373ffffffffffffffffffffffffffffffffffffffff1685877fa1090f273bba5703df83b0b04a3650e12edf6e7f3b8fb73783ba8d0017f2d1744285604051610c77929190611952565b60405180910390a4505050505050565b610c8f6110af565b600073ffffffffffffffffffffffffffffffffffffffff168373ffffffffffffffffffffffffffffffffffffffff1603610cfe576040517f08c379a0000000000000000000000000000000000000000000000000000000008152600401610cf590611c26565b60405180910390fd5b600160008473ffffffffffffffffffffffffffffffffffffffff1673ffffffffffffffffffffffffffffffffffffffff16815260200190815260200160002060009054906101000a900460ff1615610d8b576040517f08c379a0000000000000000000000000000000000000000000000000000000008152600401610d8290611c92565b60405180910390fd5b60018060008573ffffffffffffffffffffffffffffffffffffffff1673ffffffffffffffffffffffffffffffffffffffff16815260200190815260200160002060006101000a81548160ff0219169083151502179055508181600260008673ffffffffffffffffffffffffffffffffffffffff1673ffffffffffffffffffffffffffffffffffffffff1681526020019081526020016000209182610e30929190611ef8565b508273ffffffffffffffffffffffffffffffffffffffff167f5c40f0f68228d0c3d8b15549c4e80959d10556c15b83fa927ffdb1a3b2b264b18383604051610e79929190612004565b60405180910390a2505050565b60026020528060005260406000206000915090508054610ea590611d1b565b80601f0160208091040260200160405190810160405280929190818152602001828054610ed190611d1b565b8015610f1e5780601f10610ef357610100808354040283529160200191610f1e565b820191906000526020600020905b815481529060010190602001808311610f0157829003601f168201915b505050505081565b60016020528060005260406000206000915054906101000a900460ff1681565b610f4e6110af565b600073ffffffffffffffffffffffffffffffffffffffff168173ffffffffffffffffffffffffffffffffffffffff1603610fc05760006040517f1e4fbdf7000000000000000000000000000000000000000000000000000000008152600401610fb7919061141c565b60405180910390fd5b610fc981611136565b50565b6000806000806000600460008781526020019081526020016000208054905090506000810361100c576000801b60008060009450945094509450506110a8565b600060036000888152602001908152602001600020549050600060046000898152602001908152602001600020828154811061104b5761104a6116e1565b5b9060005260206000209060050201905080600101548160020160009054906101000a900473ffffffffffffffffffffffffffffffffffffffff1682600301548360040160009054906101000a900460ff1696509650965096505050505b9193509193565b6110b76111fa565b73ffffffffffffffffffffffffffffffffffffffff166110d56103ca565b73ffffffffffffffffffffffffffffffffffffffff1614611134576110f86111fa565b6040517f118cdaa700000000000000000000000000000000000000000000000000000000815260040161112b919061141c565b60405180910390fd5b565b60008060009054906101000a900473ffffffffffffffffffffffffffffffffffffffff169050816000806101000a81548173ffffffffffffffffffffffffffffffffffffffff021916908373ffffffffffffffffffffffffffffffffffffffff1602179055508173ffffffffffffffffffffffffffffffffffffffff168173ffffffffffffffffffffffffffffffffffffffff167f8be0079c531659141344cd1fd0a4f28419497f9722a3daafe3b4186f6b6457e060405160405180910390a35050565b600033905090565b50805461120e90611d1b565b6000825580601f10611220575061123f565b601f01602090049060005260206000209081019061123e9190611242565b5b50565b5b8082111561125b576000816000905550600101611243565b5090565b600080fd5b600080fd5b6000819050919050565b61127c81611269565b811461128757600080fd5b50565b60008135905061129981611273565b92915050565b6000819050919050565b6112b28161129f565b81146112bd57600080fd5b50565b6000813590506112cf816112a9565b92915050565b600080604083850312156112ec576112eb61125f565b5b60006112fa8582860161128a565b925050602061130b858286016112c0565b9150509250929050565b61131e81611269565b82525050565b600073ffffffffffffffffffffffffffffffffffffffff82169050919050565b600061134f82611324565b9050919050565b61135f81611344565b82525050565b61136e8161129f565b82525050565b60008115159050919050565b61138981611374565b82525050565b60006080820190506113a46000830187611315565b6113b16020830186611356565b6113be6040830185611365565b6113cb6060830184611380565b95945050505050565b6000602082840312156113ea576113e961125f565b5b60006113f88482850161128a565b91505092915050565b60006020820190506114166000830184611365565b92915050565b60006020820190506114316000830184611356565b92915050565b61144081611344565b811461144b57600080fd5b50565b60008135905061145d81611437565b92915050565b6000602082840312156114795761147861125f565b5b60006114878482850161144e565b91505092915050565b60006020820190506114a56000830184611380565b92915050565b6000806000606084860312156114c4576114c361125f565b5b60006114d28682870161128a565b93505060206114e38682870161128a565b92505060406114f48682870161144e565b9150509250925092565b600080fd5b600080fd5b600080fd5b60008083601f840112611523576115226114fe565b5b8235905067ffffffffffffffff8111156115405761153f611503565b5b60208301915083600182028301111561155c5761155b611508565b5b9250929050565b60008060006040848603121561157c5761157b61125f565b5b600061158a8682870161144e565b935050602084013567ffffffffffffffff8111156115ab576115aa611264565b5b6115b78682870161150d565b92509250509250925092565b600081519050919050565b600082825260208201905092915050565b60005b838110156115fd5780820151818401526020810190506115e2565b60008484015250505050565b6000601f19601f8301169050919050565b6000611625826115c3565b61162f81856115ce565b935061163f8185602086016115df565b61164881611609565b840191505092915050565b6000602082019050818103600083015261166d818461161a565b905092915050565b7f57656c6c6949443a20686973746f727920696e646578204f4f42000000000000600082015250565b60006116ab601a836115ce565b91506116b682611675565b602082019050919050565b600060208201905081810360008301526116da8161169e565b9050919050565b7f4e487b7100000000000000000000000000000000000000000000000000000000600052603260045260246000fd5b7f57656c6c6949443a20697373756572206e6f7420747275737465640000000000600082015250565b6000611746601b836115ce565b915061175182611710565b602082019050919050565b6000602082019050818103600083015261177581611739565b9050919050565b7f57656c6c6949443a20696e76616c696420646964486173680000000000000000600082015250565b60006117b26018836115ce565b91506117bd8261177c565b602082019050919050565b600060208201905081810360008301526117e1816117a5565b9050919050565b7f57656c6c6949443a206e6f20726567697374726174696f6e2065786973747300600082015250565b600061181e601f836115ce565b9150611829826117e8565b602082019050919050565b6000602082019050818103600083015261184d81611811565b9050919050565b7f57656c6c6949443a206e6f7420617574686f72697a656420746f207265766f6b60008201527f6500000000000000000000000000000000000000000000000000000000000000602082015250565b60006118b06021836115ce565b91506118bb82611854565b604082019050919050565b600060208201905081810360008301526118df816118a3565b9050919050565b7f57656c6c6949443a20616c7265616479207265766f6b65640000000000000000600082015250565b600061191c6018836115ce565b9150611927826118e6565b602082019050919050565b6000602082019050818103600083015261194b8161190f565b9050919050565b60006040820190506119676000830185611365565b6119746020830184611365565b9392505050565b7f57656c6c6949443a2063616c6c6572206e6f742061207472757374656420697360008201527f7375657200000000000000000000000000000000000000000000000000000000602082015250565b60006119d76024836115ce565b91506119e28261197b565b604082019050919050565b60006020820190508181036000830152611a06816119ca565b9050919050565b7f57656c6c6949443a20696e76616c696420766348617368000000000000000000600082015250565b6000611a436017836115ce565b9150611a4e82611a0d565b602082019050919050565b60006020820190508181036000830152611a7281611a36565b9050919050565b7f57656c6c6949443a20696e76616c6964206f776e657200000000000000000000600082015250565b6000611aaf6016836115ce565b9150611aba82611a79565b602082019050919050565b60006020820190508181036000830152611ade81611aa2565b9050919050565b7f57656c6c6949443a2044494420616c726561647920726567697374657265642060008201527f616e642061637469766500000000000000000000000000000000000000000000602082015250565b6000611b41602a836115ce565b9150611b4c82611ae5565b604082019050919050565b60006020820190508181036000830152611b7081611b34565b9050919050565b7f4e487b7100000000000000000000000000000000000000000000000000000000600052601160045260246000fd5b6000611bb18261129f565b9150611bbc8361129f565b9250828203905081811115611bd457611bd3611b77565b5b92915050565b7f57656c6c6949443a207a65726f20697373756572000000000000000000000000600082015250565b6000611c106014836115ce565b9150611c1b82611bda565b602082019050919050565b60006020820190508181036000830152611c3f81611c03565b9050919050565b7f57656c6c6949443a2069737375657220616c7265616479207472757374656400600082015250565b6000611c7c601f836115ce565b9150611c8782611c46565b602082019050919050565b60006020820190508181036000830152611cab81611c6f565b9050919050565b600082905092915050565b7f4e487b7100000000000000000000000000000000000000000000000000000000600052604160045260246000fd5b7f4e487b7100000000000000000000000000000000000000000000000000000000600052602260045260246000fd5b60006002820490506001821680611d3357607f821691505b602082108103611d4657611d45611cec565b5b50919050565b60008190508160005260206000209050919050565b60006020601f8301049050919050565b600082821b905092915050565b600060088302611dae7fffffffffffffffffffffffffffffffffffffffffffffffffffffffffffffffff82611d71565b611db88683611d71565b95508019841693508086168417925050509392505050565b6000819050919050565b6000611df5611df0611deb8461129f565b611dd0565b61129f565b9050919050565b6000819050919050565b611e0f83611dda565b611e23611e1b82611dfc565b848454611d7e565b825550505050565b600090565b611e38611e2b565b611e43818484611e06565b505050565b5b81811015611e6757611e5c600082611e30565b600181019050611e49565b5050565b601f821115611eac57611e7d81611d4c565b611e8684611d61565b81016020851015611e95578190505b611ea9611ea185611d61565b830182611e48565b50505b505050565b600082821c905092915050565b6000611ecf60001984600802611eb1565b1980831691505092915050565b6000611ee88383611ebe565b9150826002028217905092915050565b611f028383611cb2565b67ffffffffffffffff811115611f1b57611f1a611cbd565b5b611f258254611d1b565b611f30828285611e6b565b6000601f831160018114611f5f5760008415611f4d578287013590505b611f578582611edc565b865550611fbf565b601f198416611f6d86611d4c565b60005b82811015611f9557848901358255600182019150602085019450602081019050611f70565b86831015611fb25784890135611fae601f891682611ebe565b8355505b6001600288020188555050505b50505050505050565b82818337600083830152505050565b6000611fe383856115ce565b9350611ff0838584611fc8565b611ff983611609565b840190509392505050565b6000602082019050818103600083015261201f818486611fd7565b9050939250505056fea26469706673582212200e07c55b24244946ab4bc5de7b4e1e64677cf55c0592652d3b870ede6740084964736f6c634300081c0033",
  "linkReferences": {},
  "deployedLinkReferences": {}
}