{
  "_format": "hh-sol-artifact-1",
  "contractName": "AccessControlRegistry",
  "sourceName": "contracts/AccessControl.sol",
  "abi": [
    {
      "inputs": [],
      "stateMutability": "nonpayable",
      "type": "constructor"
    },
    {
      "inputs": [
        {
          "internalType": "address",
          "name": "owner",
          "type": "address"
        }
      ],
      "name": "OwnableInvalidOwner",
      "type": "error"
    },
    {
      "inputs": [
        {
          "internalType": "address",
          "name": "account",
          "type": "address"
        }
      ],
      "name": "OwnableUnauthorizedAccount",
      "type": "error"
    },
    {
      "anonymous": false,
      "inputs": [
        {
          "indexed": true,
          "internalType": "address",
          "name": "patient",
          "type": "address"
        },
        {
          "indexed": true,
          "internalType": "address",
          "name": "requester",
          "type": "address"
        },
        {
          "indexed": false,
          "internalType": "string",
          "name": "cid",
          "type": "string"
        },
        {
          "indexed": false,
          "internalType": "string",
          "name": "scope",
          "type": "string"
        },
        {
          "indexed": false,
          "internalType": "uint64",
          "name": "expiry",
          "type": "uint64"
        }
      ],
      "name": "AccessGranted",
      "type": "event"
    },
    {
      "anonymous": false,
      "inputs": [
        {
          "indexed": true,
          "internalType": "address",
          "name": "patient",
          "type": "address"
        },
        {
          "indexed": true,
          "internalType": "address",
          "name": "requester",
          "type": "address"
        },
        {
          "indexed": false,
          "internalType": "string",
          "name": "cid",
          "type": "string"
        }
      ],
      "name": "AccessRevoked",
      "type": "event"
    },
    {
      "anonymous": false,
      "inputs": [
        {
          "indexed": true,
          "internalType": "address",
          "name": "previousOwner",
          "type": "address"
        },
        {
          "indexed": true,
          "internalType": "address",
          "name": "newOwner",
          "type": "address"
        }
      ],
      "name": "OwnershipTransferred",
      "type": "event"
    },
    {
      "inputs": [],
      "name": "dataRegistry",
      "outputs": [
        {
          "internalType": "contract IDataIntegrityRegistry",
          "name": "",
          "type": "address"
        }
      ],
      "stateMutability": "view",
      "type": "function"
    },
    {
      "inputs": [
        {
          "internalType": "address",
          "name": "patient",
          "type": "address"
        },
        {
          "internalType": "address",
          "name": "requester",
          "type": "address"
        },
        {
          "internalType": "string",
          "name": "cid",
          "type": "string"
        }
      ],
      "name": "getPermission",
      "outputs": [
        {
          "internalType": "address",
          "name": "_patient",
          "type": "address"
        },
        {
          "internalType": "address",
          "name": "_requester",
          "type": "address"
        },
        {
          "internalType": "string",
          "name": "_cid",
          "type": "string"
        },
        {
          "internalType": "string",
          "name": "_scope",
          "type": "string"
        },
        {
          "internalType": "uint64",
          "name": "_expiry",
          "type": "uint64"
        },
        {
          "internalType": "bool",
          "name": "_active",
          "type": "bool"
        }
      ],
      "stateMutability": "view",
      "type": "function"
    },
    {
      "inputs": [
        {
          "internalType": "address",
          "name": "requester",
          "type": "address"
        },
        {
          "internalType": "string",
          "name": "cid",
          "type": "string"
        },
        {
          "internalType": "string",
          "name": "scope",
          "type": "string"
        },
        {
          "internalType": "uint64",
          "name": "expiry",
          "type": "uint64"
        }
      ],
      "name": "grantAccess",
      "outputs": [],
      "stateMutability": "nonpayable",
      "type": "function"
    },
    {
      "inputs": [
        {
          "internalType": "address",
          "name": "requester",
          "type": "address"
        },
        {
          "internalType": "string[]",
          "name": "cids",
          "type": "string[]"
        },
        {
          "internalType": "string",
          "name": "scope",
          "type": "string"
        },
        {
          "internalType": "uint64",
          "name": "expiry",
          "type": "uint64"
        }
      ],
      "name": "grantBatchAccess",
      "outputs": [],
      "stateMutability": "nonpayable",
      "type": "function"
    },
    {
      "inputs": [
        {
          "internalType": "address",
          "name": "patient",
          "type": "address"
        },
        {
          "internalType": "address",
          "name": "requester",
          "type": "address"
        },
        {
          "internalType": "string",
          "name": "cid",
          "type": "string"
        }
      ],
      "name": "hasAccess",
      "outputs": [
        {
          "internalType": "bool",
          "name": "",
          "type": "bool"
        }
      ],
      "stateMutability": "view",
      "type": "function"
    },
    {
      "inputs": [],
      "name": "owner",
      "outputs": [
        {
          "internalType": "address",
          "name": "",
          "type": "address"
        }
      ],
      "stateMutability": "view",
      "type": "function"
    },
    {
      "inputs": [],
      "name": "renounceOwnership",
      "outputs": [],
      "stateMutability": "nonpayable",
      "type": "function"
    },
    {
      "inputs": [
        {
          "internalType": "address",
          "name": "requester",
          "type": "address"
        },
        {
          "internalType": "string",
          "name": "cid",
          "type": "string"
        }
      ],
      "name": "revokeAccess",
      "outputs": [],
      "stateMutability": "nonpayable",
      "type": "function"
    },
    {
      "inputs": [
        {
          "internalType": "address",
          "name": "requester",
          "type": "address"
        },
        {
          "internalType": "string[]",
          "name": "cids",
          "type": "string[]"
        }
      ],
      "name": "revokeBatchAccess",
      "outputs": [],
      "stateMutability": "nonpayable",
      "type": "function"
    },
    {
      "inputs": [
        {
          "internalType": "address",
          "name": "registry",
          "type": "address"
        }
      ],
      "name": "setDataRegistry",
      "outputs": [],
      "stateMutability": "nonpayable",
      "type": "function"
    },
    {
      "inputs": [
        {
          "internalType": "address",
          "name": "registry",
          "type": "address"
        }
      ],
      "name": "setWelliIDRegistry",
      "outputs": [],
      "stateMutability": "nonpayable",
      "type": "function"
    },
    {
      "inputs": [
        {
          "internalType": "address",
          "name": "newOwner",
          "type": "address"
        }
      ],
      "name": "transferOwnership",
      "outputs": [],
      "stateMutability": "nonpayable",
      "type": "function"
    },
    {
      "inputs": [],
      "name": "welliIDRegistry",
      "outputs": [
        {
          "internalType": "contract IWelliIDRegistry",
          "name": "",
          "type": "address"
        }
      ],
      "stateMutability": "view",
      "type": "function"
    }
  ],
  "bytecode": "0x608060405234801561001057600080fd5b5033600073ffffffffffffffffffffffffffffffffffffffff168173ffffffffffffffffffffffffffffffffffffffff16036100845760006040517f1e4fbdf700000000000000000000000000000000000000000000000000000000815260040161007b919061019e565b60405180910390fd5b6100938161009960201b60201c565b506101b9565b60008060009054906101000a900473ffffffffffffffffffffffffffffffffffffffff169050816000806101000a81548173ffffffffffffffffffffffffffffffffffffffff021916908373ffffffffffffffffffffffffffffffffffffffff1602179055508173ffffffffffffffffffffffffffffffffffffffff168173ffffffffffffffffffffffffffffffffffffffff167f8be0079c531659141344cd1fd0a4f28419497f9722a3daafe3b4186f6b6457e060405160405180910390a35050565b600073ffffffffffffffffffffffffffffffffffffffff82169050919050565b60006101888261015d565b9050919050565b6101988161017d565b82525050565b60006020820190506101b3600083018461018f565b92915050565b612580806101c86000396000f3fe608060405234801561001057600080fd5b50600436106100cf5760003560e01c80638b928cd51161008c578063a39c1d6b11610066578063a39c1d6b146101ed578063bd1068d81461020b578063ea7f3a2814610227578063f2fde38b14610245576100cf565b80638b928cd5146101975780638c19264f146101b35780638da5cb5b146101cf576100cf565b80632c460fb9146100d4578063453b0b4c146101095780634e712dab146101255780635eab7ee1146101555780636a44cac914610171578063715018a61461018d575b600080fd5b6100ee60048036038101906100e99190611487565b610261565b604051610100969594939291906115d8565b60405180910390f35b610123600480360381019061011e9190611647565b610484565b005b61013f600480360381019061013a9190611487565b61053f565b60405161014c9190611674565b60405180910390f35b61016f600480360381019061016a91906116e5565b6105f6565b005b61018b60048036038101906101869190611745565b61068b565b005b610195610863565b005b6101b160048036038101906101ac9190611647565b610877565b005b6101cd60048036038101906101c891906117d1565b610932565b005b6101d7610ad9565b6040516101e49190611878565b60405180910390f35b6101f5610b02565b60405161020291906118f2565b60405180910390f35b6102256004803603810190610220919061190d565b610b28565b005b61022f611185565b60405161023c91906119d5565b60405180910390f35b61025f600480360381019061025a9190611647565b6111ab565b005b60008060608060008060006102bb8b8b8b8b8080601f016020809104026020016040519081016040528093929190818152602001838380828437600081840152601f19601f82011690508083019250505050505050611231565b905060006003600083815260200190815260200160002090508060000160009054906101000a900473ffffffffffffffffffffffffffffffffffffffff168160010160009054906101000a900473ffffffffffffffffffffffffffffffffffffffff1682600201836003018460040160009054906101000a900467ffffffffffffffff168560040160089054906101000a900460ff1683805461035d90611a1f565b80601f016020809104026020016040519081016040528092919081815260200182805461038990611a1f565b80156103d65780601f106103ab576101008083540402835291602001916103d6565b820191906000526020600020905b8154815290600101906020018083116103b957829003601f168201915b505050505093508280546103e990611a1f565b80601f016020809104026020016040519081016040528092919081815260200182805461041590611a1f565b80156104625780601f1061043757610100808354040283529160200191610462565b820191906000526020600020905b81548152906001019060200180831161044557829003601f168201915b5050505050925097509750975097509750975050509499939850945094509450565b61048c611267565b600073ffffffffffffffffffffffffffffffffffffffff168173ffffffffffffffffffffffffffffffffffffffff16036104fb576040517f08c379a00000000000000000000000000000000000000000000000000000000081526004016104f290611a9c565b60405180910390fd5b80600260006101000a81548173ffffffffffffffffffffffffffffffffffffffff021916908373ffffffffffffffffffffffffffffffffffffffff16021790555050565b600080610591868686868080601f016020809104026020016040519081016040528093929190818152602001838380828437600081840152601f19601f82011690508083019250505050505050611231565b905060006003600083815260200190815260200160002090508060040160089054906101000a900460ff1680156105ea57508060040160009054906101000a900467ffffffffffffffff1667ffffffffffffffff164211155b92505050949350505050565b6000828290501161063c576040517f08c379a000000000000000000000000000000000000000000000000000000000815260040161063390611b08565b60405180910390fd5b60005b82829050811015610685576106788484848481811061066157610660611b28565b5b90506020028101906106739190611b66565b61068b565b808060010191505061063f565b50505050565b60006106dc338585858080601f016020809104026020016040519081016040528093929190818152602001838380828437600081840152601f19601f82011690508083019250505050505050611231565b905060006003600083815260200190815260200160002090503373ffffffffffffffffffffffffffffffffffffffff168160000160009054906101000a900473ffffffffffffffffffffffffffffffffffffffff1673ffffffffffffffffffffffffffffffffffffffff1614610787576040517f08c379a000000000000000000000000000000000000000000000000000000000815260040161077e90611c15565b60405180910390fd5b8060040160089054906101000a900460ff166107d8576040517f08c379a00000000000000000000000000000000000000000000000000000000081526004016107cf90611c81565b60405180910390fd5b60008160040160086101000a81548160ff0219169083151502179055508473ffffffffffffffffffffffffffffffffffffffff163373ffffffffffffffffffffffffffffffffffffffff167f0a2382b7b0f44ee62df753c00034038c109332bf9b8f52418af74aa2859780fb8686604051610854929190611cdd565b60405180910390a35050505050565b61086b611267565b61087560006112ee565b565b61087f611267565b600073ffffffffffffffffffffffffffffffffffffffff168173ffffffffffffffffffffffffffffffffffffffff16036108ee576040517f08c379a00000000000000000000000000000000000000000000000000000000081526004016108e590611a9c565b60405180910390fd5b80600160006101000a81548173ffffffffffffffffffffffffffffffffffffffff021916908373ffffffffffffffffffffffffffffffffffffffff16021790555050565b600073ffffffffffffffffffffffffffffffffffffffff168673ffffffffffffffffffffffffffffffffffffffff16036109a1576040517f08c379a000000000000000000000000000000000000000000000000000000000815260040161099890611d4d565b60405180910390fd5b428167ffffffffffffffff16116109ed576040517f08c379a00000000000000000000000000000000000000000000000000000000081526004016109e490611db9565b60405180910390fd5b60008585905011610a33576040517f08c379a0000000000000000000000000000000000000000000000000000000008152600401610a2a90611b08565b60405180910390fd5b60005b85859050811015610ad057366000878784818110610a5757610a56611b28565b5b9050602002810190610a699190611b66565b9150915060008282905011610ab3576040517f08c379a0000000000000000000000000000000000000000000000000000000008152600401610aaa90611e25565b60405180910390fd5b610ac1898383898989610b28565b50508080600101915050610a36565b50505050505050565b60008060009054906101000a900473ffffffffffffffffffffffffffffffffffffffff16905090565b600260009054906101000a900473ffffffffffffffffffffffffffffffffffffffff1681565b60008585905011610b6e576040517f08c379a0000000000000000000000000000000000000000000000000000000008152600401610b6590611e91565b60405180910390fd5b600073ffffffffffffffffffffffffffffffffffffffff168673ffffffffffffffffffffffffffffffffffffffff1603610bdd576040517f08c379a0000000000000000000000000000000000000000000000000000000008152600401610bd490611d4d565b60405180910390fd5b428167ffffffffffffffff1611610c29576040517f08c379a0000000000000000000000000000000000000000000000000000000008152600401610c2090611db9565b60405180910390fd5b600033604051602001610c3c9190611ef9565b6040516020818303038152906040528051906020012090506000600160009054906101000a900473ffffffffffffffffffffffffffffffffffffffff1673ffffffffffffffffffffffffffffffffffffffff1663f968ae48836040518263ffffffff1660e01b8152600401610cb19190611f2d565b608060405180830381865afa158015610cce573d6000803e3d6000fd5b505050506040513d601f19601f82011682018060405250810190610cf29190611feb565b93505050508015610d38576040517f08c379a0000000000000000000000000000000000000000000000000000000008152600401610d2f906120c4565b60405180910390fd5b3373ffffffffffffffffffffffffffffffffffffffff16600260009054906101000a900473ffffffffffffffffffffffffffffffffffffffff1673ffffffffffffffffffffffffffffffffffffffff16634aaf4a1289896040518363ffffffff1660e01b8152600401610dac929190611cdd565b602060405180830381865afa158015610dc9573d6000803e3d6000fd5b505050506040513d601f19601f82011682018060405250810190610ded91906120e4565b73ffffffffffffffffffffffffffffffffffffffff1614610e43576040517f08c379a0000000000000000000000000000000000000000000000000000000008152600401610e3a9061215d565b60405180910390fd5b6000610e94338a8a8a8080601f016020809104026020016040519081016040528093929190818152602001838380828437600081840152601f19601f82011690508083019250505050505050611231565b905060006003600083815260200190815260200160002090508060040160089054906101000a900460ff1615610eff576040517f08c379a0000000000000000000000000000000000000000000000000000000008152600401610ef6906121c9565b60405180910390fd5b6040518060c001604052803373ffffffffffffffffffffffffffffffffffffffff1681526020018b73ffffffffffffffffffffffffffffffffffffffff1681526020018a8a8080601f016020809104026020016040519081016040528093929190818152602001838380828437600081840152601f19601f82011690508083019250505050505050815260200188888080601f016020809104026020016040519081016040528093929190818152602001838380828437600081840152601f19601f8201169050808301925050505050505081526020018667ffffffffffffffff168152602001600115158152506003600084815260200190815260200160002060008201518160000160006101000a81548173ffffffffffffffffffffffffffffffffffffffff021916908373ffffffffffffffffffffffffffffffffffffffff16021790555060208201518160010160006101000a81548173ffffffffffffffffffffffffffffffffffffffff021916908373ffffffffffffffffffffffffffffffffffffffff16021790555060408201518160020190816110a391906123ba565b5060608201518160030190816110b991906123ba565b5060808201518160040160006101000a81548167ffffffffffffffff021916908367ffffffffffffffff16021790555060a08201518160040160086101000a81548160ff0219169083151502179055509050508973ffffffffffffffffffffffffffffffffffffffff163373ffffffffffffffffffffffffffffffffffffffff167f09ca3ca4547121535b9e18209ce3ffb2e76079fff504e651e26eba9385edea578b8b8b8b8b60405161117195949392919061248c565b60405180910390a350505050505050505050565b600160009054906101000a900473ffffffffffffffffffffffffffffffffffffffff1681565b6111b3611267565b600073ffffffffffffffffffffffffffffffffffffffff168173ffffffffffffffffffffffffffffffffffffffff16036112255760006040517f1e4fbdf700000000000000000000000000000000000000000000000000000000815260040161121c9190611878565b60405180910390fd5b61122e816112ee565b50565b600083838360405160200161124893929190612511565b6040516020818303038152906040528051906020012090509392505050565b61126f6113b2565b73ffffffffffffffffffffffffffffffffffffffff1661128d610ad9565b73ffffffffffffffffffffffffffffffffffffffff16146112ec576112b06113b2565b6040517f118cdaa70000000000000000000000000000000000000000000000000000000081526004016112e39190611878565b60405180910390fd5b565b60008060009054906101000a900473ffffffffffffffffffffffffffffffffffffffff169050816000806101000a81548173ffffffffffffffffffffffffffffffffffffffff021916908373ffffffffffffffffffffffffffffffffffffffff1602179055508173ffffffffffffffffffffffffffffffffffffffff168173ffffffffffffffffffffffffffffffffffffffff167f8be0079c531659141344cd1fd0a4f28419497f9722a3daafe3b4186f6b6457e060405160405180910390a35050565b600033905090565b600080fd5b600080fd5b600073ffffffffffffffffffffffffffffffffffffffff82169050919050565b60006113ef826113c4565b9050919050565b6113ff816113e4565b811461140a57600080fd5b50565b60008135905061141c816113f6565b92915050565b600080fd5b600080fd5b600080fd5b60008083601f84011261144757611446611422565b5b8235905067ffffffffffffffff81111561146457611463611427565b5b6020830191508360018202830111156114805761147f61142c565b5b9250929050565b600080600080606085870312156114a1576114a06113ba565b5b60006114af8782880161140d565b94505060206114c08782880161140d565b935050604085013567ffffffffffffffff8111156114e1576114e06113bf565b5b6114ed87828801611431565b925092505092959194509250565b611504816113e4565b82525050565b600081519050919050565b600082825260208201905092915050565b60005b83811015611544578082015181840152602081019050611529565b60008484015250505050565b6000601f19601f8301169050919050565b600061156c8261150a565b6115768185611515565b9350611586818560208601611526565b61158f81611550565b840191505092915050565b600067ffffffffffffffff82169050919050565b6115b78161159a565b82525050565b60008115159050919050565b6115d2816115bd565b82525050565b600060c0820190506115ed60008301896114fb565b6115fa60208301886114fb565b818103604083015261160c8187611561565b905081810360608301526116208186611561565b905061162f60808301856115ae565b61163c60a08301846115c9565b979650505050505050565b60006020828403121561165d5761165c6113ba565b5b600061166b8482850161140d565b91505092915050565b600060208201905061168960008301846115c9565b92915050565b60008083601f8401126116a5576116a4611422565b5b8235905067ffffffffffffffff8111156116c2576116c1611427565b5b6020830191508360208202830111156116de576116dd61142c565b5b9250929050565b6000806000604084860312156116fe576116fd6113ba565b5b600061170c8682870161140d565b935050602084013567ffffffffffffffff81111561172d5761172c6113bf565b5b6117398682870161168f565b92509250509250925092565b60008060006040848603121561175e5761175d6113ba565b5b600061176c8682870161140d565b935050602084013567ffffffffffffffff81111561178d5761178c6113bf565b5b61179986828701611431565b92509250509250925092565b6117ae8161159a565b81146117b957600080fd5b50565b6000813590506117cb816117a5565b92915050565b600080600080600080608087890312156117ee576117ed6113ba565b5b60006117fc89828a0161140d565b965050602087013567ffffffffffffffff81111561181d5761181c6113bf565b5b61182989828a0161168f565b9550955050604087013567ffffffffffffffff81111561184c5761184b6113bf565b5b61185889828a01611431565b9350935050606061186b89828a016117bc565b9150509295509295509295565b600060208201905061188d60008301846114fb565b92915050565b6000819050919050565b60006118b86118b36118ae846113c4565b611893565b6113c4565b9050919050565b60006118ca8261189d565b9050919050565b60006118dc826118bf565b9050919050565b6118ec816118d1565b82525050565b600060208201905061190760008301846118e3565b92915050565b6000806000806000806080878903121561192a576119296113ba565b5b600061193889828a0161140d565b965050602087013567ffffffffffffffff811115611959576119586113bf565b5b61196589828a01611431565b9550955050604087013567ffffffffffffffff811115611988576119876113bf565b5b61199489828a01611431565b935093505060606119a789828a016117bc565b9150509295509295509295565b60006119bf826118bf565b9050919050565b6119cf816119b4565b82525050565b60006020820190506119ea60008301846119c6565b92915050565b7f4e487b7100000000000000000000000000000000000000000000000000000000600052602260045260246000fd5b60006002820490506001821680611a3757607f821691505b602082108103611a4a57611a496119f0565b5b50919050565b7f696e76616c696420726567697374727900000000000000000000000000000000600082015250565b6000611a86601083611515565b9150611a9182611a50565b602082019050919050565b60006020820190508181036000830152611ab581611a79565b9050919050565b7f6e6f20636964732070726f766964656400000000000000000000000000000000600082015250565b6000611af2601083611515565b9150611afd82611abc565b602082019050919050565b60006020820190508181036000830152611b2181611ae5565b9050919050565b7f4e487b7100000000000000000000000000000000000000000000000000000000600052603260045260246000fd5b600080fd5b600080fd5b600080fd5b60008083356001602003843603038112611b8357611b82611b57565b5b80840192508235915067ffffffffffffffff821115611ba557611ba4611b5c565b5b602083019250600182023603831315611bc157611bc0611b61565b5b509250929050565b7f6f6e6c792070617469656e742063616e207265766f6b65000000000000000000600082015250565b6000611bff601783611515565b9150611c0a82611bc9565b602082019050919050565b60006020820190508181036000830152611c2e81611bf2565b9050919050565b7f6e6f742061637469766500000000000000000000000000000000000000000000600082015250565b6000611c6b600a83611515565b9150611c7682611c35565b602082019050919050565b60006020820190508181036000830152611c9a81611c5e565b9050919050565b82818337600083830152505050565b6000611cbc8385611515565b9350611cc9838584611ca1565b611cd283611550565b840190509392505050565b60006020820190508181036000830152611cf8818486611cb0565b90509392505050565b7f696e76616c696420726571756573746572000000000000000000000000000000600082015250565b6000611d37601183611515565b9150611d4282611d01565b602082019050919050565b60006020820190508181036000830152611d6681611d2a565b9050919050565b7f657870697279206d75737420626520696e206675747572650000000000000000600082015250565b6000611da3601883611515565b9150611dae82611d6d565b602082019050919050565b60006020820190508181036000830152611dd281611d96565b9050919050565b7f656d707479206369640000000000000000000000000000000000000000000000600082015250565b6000611e0f600983611515565b9150611e1a82611dd9565b602082019050919050565b60006020820190508181036000830152611e3e81611e02565b9050919050565b7f6369642072657175697265640000000000000000000000000000000000000000600082015250565b6000611e7b600c83611515565b9150611e8682611e45565b602082019050919050565b60006020820190508181036000830152611eaa81611e6e565b9050919050565b60008160601b9050919050565b6000611ec982611eb1565b9050919050565b6000611edb82611ebe565b9050919050565b611ef3611eee826113e4565b611ed0565b82525050565b6000611f058284611ee2565b60148201915081905092915050565b6000819050919050565b611f2781611f14565b82525050565b6000602082019050611f426000830184611f1e565b92915050565b611f5181611f14565b8114611f5c57600080fd5b50565b600081519050611f6e81611f48565b92915050565b600081519050611f83816113f6565b92915050565b6000819050919050565b611f9c81611f89565b8114611fa757600080fd5b50565b600081519050611fb981611f93565b92915050565b611fc8816115bd565b8114611fd357600080fd5b50565b600081519050611fe581611fbf565b92915050565b60008060008060808587031215612005576120046113ba565b5b600061201387828801611f5f565b945050602061202487828801611f74565b935050604061203587828801611faa565b925050606061204687828801611fd6565b91505092959194509250565b7f416363657373436f6e74726f6c3a2075736572206e6f7420726567697374657260008201527f6564206f72207265766f6b656400000000000000000000000000000000000000602082015250565b60006120ae602d83611515565b91506120b982612052565b604082019050919050565b600060208201905081810360008301526120dd816120a1565b9050919050565b6000602082840312156120fa576120f96113ba565b5b600061210884828501611f74565b91505092915050565b7f63616c6c6572206e6f74206f776e6572206f66207265636f7264000000000000600082015250565b6000612147601a83611515565b915061215282612111565b602082019050919050565b600060208201905081810360008301526121768161213a565b9050919050565b7f7065726d697373696f6e20616c72656164792061637469766500000000000000600082015250565b60006121b3601983611515565b91506121be8261217d565b602082019050919050565b600060208201905081810360008301526121e2816121a6565b9050919050565b7f4e487b7100000000000000000000000000000000000000000000000000000000600052604160045260246000fd5b60008190508160005260206000209050919050565b60006020601f8301049050919050565b600082821b905092915050565b60006008830261227a7fffffffffffffffffffffffffffffffffffffffffffffffffffffffffffffffff8261223d565b612284868361223d565b95508019841693508086168417925050509392505050565b60006122b76122b26122ad84611f89565b611893565b611f89565b9050919050565b6000819050919050565b6122d18361229c565b6122e56122dd826122be565b84845461224a565b825550505050565b600090565b6122fa6122ed565b6123058184846122c8565b505050565b5b818110156123295761231e6000826122f2565b60018101905061230b565b5050565b601f82111561236e5761233f81612218565b6123488461222d565b81016020851015612357578190505b61236b6123638561222d565b83018261230a565b50505b505050565b600082821c905092915050565b600061239160001984600802612373565b1980831691505092915050565b60006123aa8383612380565b9150826002028217905092915050565b6123c38261150a565b67ffffffffffffffff8111156123dc576123db6121e9565b5b6123e68254611a1f565b6123f182828561232d565b600060209050601f8311600181146124245760008415612412578287015190505b61241c858261239e565b865550612484565b601f19841661243286612218565b60005b8281101561245a57848901518255600182019150602085019450602081019050612435565b868310156124775784890151612473601f891682612380565b8355505b6001600288020188555050505b505050505050565b600060608201905081810360008301526124a7818789611cb0565b905081810360208301526124bc818587611cb0565b90506124cb60408301846115ae565b9695505050505050565b600081905092915050565b60006124eb8261150a565b6124f581856124d5565b9350612505818560208601611526565b80840191505092915050565b600061251d8286611ee2565b60148201915061252d8285611ee2565b60148201915061253d82846124e0565b915081905094935050505056fea26469706673582212207a1f6154ef3d30d64eab2db9c72e44544df1f5d75139ca8731e52e737d16705e64736f6c634300081c0033",
  "linkReferences": {},
  "deployedLinkReferences": {}
}